{
  "contractName": "file",
  "abi": [
    {
      "inputs": [
        {
          "internalType": "address",
          "name": "owner",
          "type": "address"
        },
        {
          "internalType": "string",
          "name": "filehash",
          "type": "string"
        }
      ],
      "name": "uploadfile",
      "outputs": [],
      "stateMutability": "nonpayable",
      "type": "function"
    },
    {
      "inputs": [],
      "name": "viewfiles",
      "outputs": [
        {
          "internalType": "address[]",
          "name": "",
          "type": "address[]"
        },
        {
          "internalType": "string[]",
          "name": "",
          "type": "string[]"
        }
      ],
      "stateMutability": "view",
      "type": "function",
      "constant": true
    }
  ],
  "bytecode": "0x608060405234801561001057600080fd5b50610aa4806100206000396000f3fe608060405234801561001057600080fd5b50600436106100365760003560e01c80632a36bf091461003b578063939223ec1461005a575b600080fd5b610043610076565b60405161005192919061052b565b60405180910390f35b610074600480360381019061006f91906106d7565b6101e0565b005b60608060006001818054806020026020016040519081016040528092919081815260200182805480156100fe57602002820191906000526020600020905b8160009054906101000a900473ffffffffffffffffffffffffffffffffffffffff1673ffffffffffffffffffffffffffffffffffffffff16815260200190600101908083116100b4575b5050505050915080805480602002602001604051908101604052809291908181526020016000905b828210156101d257838290600052602060002001805461014590610762565b80601f016020809104026020016040519081016040528092919081815260200182805461017190610762565b80156101be5780601f10610193576101008083540402835291602001916101be565b820191906000526020600020905b8154815290600101906020018083116101a157829003601f168201915b505050505081526020019060010190610126565b505050509050915091509091565b6002816040516101f091906107cf565b908152602001604051809103902060009054906101000a900460ff161561021657600080fd5b6000829080600181540180825580915050600190039060005260206000200160009091909190916101000a81548173ffffffffffffffffffffffffffffffffffffffff021916908373ffffffffffffffffffffffffffffffffffffffff1602179055506001819080600181540180825580915050600190039060005260206000200160009091909190915090816102ad919061099c565b5060016002826040516102c091906107cf565b908152602001604051809103902060006101000a81548160ff0219169083151502179055505050565b600081519050919050565b600082825260208201905092915050565b6000819050602082019050919050565b600073ffffffffffffffffffffffffffffffffffffffff82169050919050565b600061034082610315565b9050919050565b61035081610335565b82525050565b60006103628383610347565b60208301905092915050565b6000602082019050919050565b6000610386826102e9565b61039081856102f4565b935061039b83610305565b8060005b838110156103cc5781516103b38882610356565b97506103be8361036e565b92505060018101905061039f565b5085935050505092915050565b600081519050919050565b600082825260208201905092915050565b6000819050602082019050919050565b600081519050919050565b600082825260208201905092915050565b60005b8381101561043f578082015181840152602081019050610424565b60008484015250505050565b6000601f19601f8301169050919050565b600061046782610405565b6104718185610410565b9350610481818560208601610421565b61048a8161044b565b840191505092915050565b60006104a1838361045c565b905092915050565b6000602082019050919050565b60006104c1826103d9565b6104cb81856103e4565b9350836020820285016104dd856103f5565b8060005b8581101561051957848403895281516104fa8582610495565b9450610505836104a9565b925060208a019950506001810190506104e1565b50829750879550505050505092915050565b60006040820190508181036000830152610545818561037b565b9050818103602083015261055981846104b6565b90509392505050565b6000604051905090565b600080fd5b600080fd5b61057f81610335565b811461058a57600080fd5b50565b60008135905061059c81610576565b92915050565b600080fd5b600080fd5b7f4e487b7100000000000000000000000000000000000000000000000000000000600052604160045260246000fd5b6105e48261044b565b810181811067ffffffffffffffff82111715610603576106026105ac565b5b80604052505050565b6000610616610562565b905061062282826105db565b919050565b600067ffffffffffffffff821115610642576106416105ac565b5b61064b8261044b565b9050602081019050919050565b82818337600083830152505050565b600061067a61067584610627565b61060c565b905082815260208101848484011115610696576106956105a7565b5b6106a1848285610658565b509392505050565b600082601f8301126106be576106bd6105a2565b5b81356106ce848260208601610667565b91505092915050565b600080604083850312156106ee576106ed61056c565b5b60006106fc8582860161058d565b925050602083013567ffffffffffffffff81111561071d5761071c610571565b5b610729858286016106a9565b9150509250929050565b7f4e487b7100000000000000000000000000000000000000000000000000000000600052602260045260246000fd5b6000600282049050600182168061077a57607f821691505b60208210810361078d5761078c610733565b5b50919050565b600081905092915050565b60006107a982610405565b6107b38185610793565b93506107c3818560208601610421565b80840191505092915050565b60006107db828461079e565b915081905092915050565b60008190508160005260206000209050919050565b60006020601f8301049050919050565b600082821b905092915050565b6000600883026108487fffffffffffffffffffffffffffffffffffffffffffffffffffffffffffffffff8261080b565b610852868361080b565b95508019841693508086168417925050509392505050565b6000819050919050565b6000819050919050565b600061089961089461088f8461086a565b610874565b61086a565b9050919050565b6000819050919050565b6108b38361087e565b6108c76108bf826108a0565b848454610818565b825550505050565b600090565b6108dc6108cf565b6108e78184846108aa565b505050565b5b8181101561090b576109006000826108d4565b6001810190506108ed565b5050565b601f82111561095057610921816107e6565b61092a846107fb565b81016020851015610939578190505b61094d610945856107fb565b8301826108ec565b50505b505050565b600082821c905092915050565b600061097360001984600802610955565b1980831691505092915050565b600061098c8383610962565b9150826002028217905092915050565b6109a582610405565b67ffffffffffffffff8111156109be576109bd6105ac565b5b6109c88254610762565b6109d382828561090f565b600060209050601f831160018114610a0657600084156109f4578287015190505b6109fe8582610980565b865550610a66565b601f198416610a14866107e6565b60005b82811015610a3c57848901518255600182019150602085019450602081019050610a17565b86831015610a595784890151610a55601f891682610962565b8355505b6001600288020188555050505b50505050505056fea26469706673582212209d51e0caabc1ec73541c0d9c87762da635c95f2b02366e302b1dc54075f2435364736f6c63430008130033",
  "immutableReferences": {},
  "source": "// SPDX-License-Identifier: MIT\npragma solidity  0.8.19;\n\ncontract file {\n\naddress[] _owners;\nstring[] _files;\n\nmapping(string =>bool) _f;\n\nfunction uploadfile(address owner,string memory filehash) public{\n\nrequire(!_f[filehash]);\n\n_owners.push(owner);\n_files.push(filehash);\n\n_f[filehash] = true;\n\n\n}\n\nfunction viewfiles() public view returns(address[] memory,string[] memory)\n{\n\n  return (_owners,_files);\n}\n\n\n}\n",
  "sourcePath": "D:\\workfiles\\Blockchain\\Project_IPFS\\contracts\\file.sol",
  "compiler": {
    "name": "solc",
    "version": "0.8.19+commit.7dd6d404.Emscripten.clang"
  },
  "schemaVersion": "3.4.16",
  "updatedAt": "2023-12-30T05:24:17.631Z",
  "networkType": "ethereum",
  "devdoc": {
    "kind": "dev",
    "methods": {},
    "version": 1
  },
  "userdoc": {
    "kind": "user",
    "methods": {},
    "version": 1
  }
}