{
  "contractName": "register",
  "abi": [
    {
      "inputs": [
        {
          "internalType": "address",
          "name": "username",
          "type": "address"
        },
        {
          "internalType": "uint256",
          "name": "password",
          "type": "uint256"
        }
      ],
      "name": "signup",
      "outputs": [],
      "stateMutability": "nonpayable",
      "type": "function"
    },
    {
      "inputs": [
        {
          "internalType": "address",
          "name": "username",
          "type": "address"
        },
        {
          "internalType": "uint256",
          "name": "password",
          "type": "uint256"
        }
      ],
      "name": "login",
      "outputs": [
        {
          "internalType": "bool",
          "name": "",
          "type": "bool"
        }
      ],
      "stateMutability": "view",
      "type": "function",
      "constant": true
    },
    {
      "inputs": [],
      "name": "viewusers",
      "outputs": [
        {
          "internalType": "address[]",
          "name": "",
          "type": "address[]"
        },
        {
          "internalType": "uint256[]",
          "name": "",
          "type": "uint256[]"
        }
      ],
      "stateMutability": "view",
      "type": "function",
      "constant": true
    }
  ],
  "bytecode": "0x608060405234801561001057600080fd5b506107a3806100206000396000f3fe608060405234801561001057600080fd5b50600436106100415760003560e01c806372623819146100465780637f8cb4c114610076578063a46dec8b14610092575b600080fd5b610060600480360381019061005b919061049e565b6100b1565b60405161006d91906104f9565b60405180910390f35b610090600480360381019061008b919061049e565b6101dd565b005b61009a61031c565b6040516100a8929190610690565b60405180910390f35b6000600260008473ffffffffffffffffffffffffffffffffffffffff1673ffffffffffffffffffffffffffffffffffffffff16815260200190815260200160002060009054906101000a900460ff1661010957600080fd5b60005b6000805490508110156101d1578373ffffffffffffffffffffffffffffffffffffffff1660008281548110610144576101436106c7565b5b9060005260206000200160009054906101000a900473ffffffffffffffffffffffffffffffffffffffff1673ffffffffffffffffffffffffffffffffffffffff161480156101af575082600182815481106101a2576101a16106c7565b5b9060005260206000200154145b156101be5760019150506101d7565b80806101c990610725565b91505061010c565b50600090505b92915050565b600260008373ffffffffffffffffffffffffffffffffffffffff1673ffffffffffffffffffffffffffffffffffffffff16815260200190815260200160002060009054906101000a900460ff161561023457600080fd5b6000829080600181540180825580915050600190039060005260206000200160009091909190916101000a81548173ffffffffffffffffffffffffffffffffffffffff021916908373ffffffffffffffffffffffffffffffffffffffff16021790555060018190806001815401808255809150506001900390600052602060002001600090919091909150556001600260008473ffffffffffffffffffffffffffffffffffffffff1673ffffffffffffffffffffffffffffffffffffffff16815260200190815260200160002060006101000a81548160ff0219169083151502179055505050565b60608060006001818054806020026020016040519081016040528092919081815260200182805480156103a457602002820191906000526020600020905b8160009054906101000a900473ffffffffffffffffffffffffffffffffffffffff1673ffffffffffffffffffffffffffffffffffffffff168152602001906001019080831161035a575b50505050509150808054806020026020016040519081016040528092919081815260200182805480156103f657602002820191906000526020600020905b8154815260200190600101908083116103e2575b50505050509050915091509091565b600080fd5b600073ffffffffffffffffffffffffffffffffffffffff82169050919050565b60006104358261040a565b9050919050565b6104458161042a565b811461045057600080fd5b50565b6000813590506104628161043c565b92915050565b6000819050919050565b61047b81610468565b811461048657600080fd5b50565b60008135905061049881610472565b92915050565b600080604083850312156104b5576104b4610405565b5b60006104c385828601610453565b92505060206104d485828601610489565b9150509250929050565b60008115159050919050565b6104f3816104de565b82525050565b600060208201905061050e60008301846104ea565b92915050565b600081519050919050565b600082825260208201905092915050565b6000819050602082019050919050565b6105498161042a565b82525050565b600061055b8383610540565b60208301905092915050565b6000602082019050919050565b600061057f82610514565b610589818561051f565b935061059483610530565b8060005b838110156105c55781516105ac888261054f565b97506105b783610567565b925050600181019050610598565b5085935050505092915050565b600081519050919050565b600082825260208201905092915050565b6000819050602082019050919050565b61060781610468565b82525050565b600061061983836105fe565b60208301905092915050565b6000602082019050919050565b600061063d826105d2565b61064781856105dd565b9350610652836105ee565b8060005b8381101561068357815161066a888261060d565b975061067583610625565b925050600181019050610656565b5085935050505092915050565b600060408201905081810360008301526106aa8185610574565b905081810360208301526106be8184610632565b90509392505050565b7f4e487b7100000000000000000000000000000000000000000000000000000000600052603260045260246000fd5b7f4e487b7100000000000000000000000000000000000000000000000000000000600052601160045260246000fd5b600061073082610468565b91507fffffffffffffffffffffffffffffffffffffffffffffffffffffffffffffffff8203610762576107616106f6565b5b60018201905091905056fea264697066735822122031ce9b459a5ff185fbe078bb0369ff33d648965523fe448eee24e1f10317858764736f6c63430008130033",
  "immutableReferences": {},
  "source": "// SPDX-License-Identifier: MIT\npragma solidity 0.8.19;\n\ncontract register {\n \naddress[] _usernames;\nuint[] _passwords;\n\nmapping (address=> bool)  _users;\n\n\n\nfunction signup(address username,uint password) public{\nrequire(!_users[username]);\n_usernames.push(username);\n_passwords.push(password);\n_users[username] = true;\n\n}\n\nfunction login(address username,uint password) public view returns(bool){\n\nrequire(_users[username]);\n\nfor(uint i=0;i<_usernames.length;i++)\n{\n  if(_usernames[i]==username && _passwords[i]==password)\n  {\n    return true;\n  }\n}\n\nreturn false;\n\n}\n\nfunction viewusers() public view returns(address[] memory,uint[] memory){\n\nreturn(_usernames,_passwords);\n\n}\n\n}\n",
  "sourcePath": "D:\\workfiles\\Blockchain\\Project_IPFS\\contracts\\register.sol",
  "compiler": {
    "name": "solc",
    "version": "0.8.19+commit.7dd6d404.Emscripten.clang"
  },
  "schemaVersion": "3.4.16",
  "updatedAt": "2023-12-30T05:24:17.394Z",
  "networkType": "ethereum",
  "devdoc": {
    "kind": "dev",
    "methods": {},
    "version": 1
  },
  "userdoc": {
    "kind": "user",
    "methods": {},
    "version": 1
  }
}