{
  "contractName": "voting",
  "abi": [
    {
      "inputs": [
        {
          "internalType": "uint256",
          "name": "",
          "type": "uint256"
        }
      ],
      "name": "_votes",
      "outputs": [
        {
          "internalType": "uint256",
          "name": "",
          "type": "uint256"
        }
      ],
      "stateMutability": "view",
      "type": "function",
      "constant": true
    },
    {
      "inputs": [
        {
          "internalType": "address",
          "name": "",
          "type": "address"
        }
      ],
      "name": "voter",
      "outputs": [
        {
          "internalType": "bool",
          "name": "",
          "type": "bool"
        }
      ],
      "stateMutability": "view",
      "type": "function",
      "constant": true
    },
    {
      "inputs": [
        {
          "internalType": "address",
          "name": "wallet",
          "type": "address"
        },
        {
          "internalType": "uint256",
          "name": "id",
          "type": "uint256"
        }
      ],
      "name": "votecast",
      "outputs": [],
      "stateMutability": "nonpayable",
      "type": "function"
    },
    {
      "inputs": [],
      "name": "result",
      "outputs": [
        {
          "internalType": "uint256[3]",
          "name": "",
          "type": "uint256[3]"
        }
      ],
      "stateMutability": "view",
      "type": "function",
      "constant": true
    }
  ],
  "bytecode": "0x60806040526040518060600160405280600060ff168152602001600060ff168152602001600060ff16815250600090600361003b92919061004e565b5034801561004857600080fd5b506100b0565b8260038101928215610082579160200282015b82811115610081578251829060ff16905591602001919060010190610061565b5b50905061008f9190610093565b5090565b5b808211156100ac576000816000905550600101610094565b5090565b610615806100bf6000396000f3fe608060405234801561001057600080fd5b506004361061004c5760003560e01c80636537214714610051578063af0dbe541461006f578063bea488941461009f578063c6a786c0146100cf575b600080fd5b6100596100eb565b60405161006691906103a9565b60405180910390f35b61008960048036038101906100849190610427565b610136565b604051610096919061046f565b60405180910390f35b6100b960048036038101906100b491906104b6565b610156565b6040516100c691906104f2565b60405180910390f35b6100e960048036038101906100e4919061050d565b610171565b005b6100f36102d2565b600060038060200260405190810160405280929190826003801561012c576020028201915b815481526020019060010190808311610118575b5050505050905090565b60036020528060005260406000206000915054906101000a900460ff1681565b6000816003811061016657600080fd5b016000915090505481565b600360008373ffffffffffffffffffffffffffffffffffffffff1673ffffffffffffffffffffffffffffffffffffffff16815260200190815260200160002060009054906101000a900460ff16156101c857600080fd5b60018103610202576001600080600381106101e6576101e561054d565b5b0160008282546101f691906105ab565b92505081905550610276565b6002810361023d57600160006001600381106102215761022061054d565b5b01600082825461023191906105ab565b92505081905550610275565b60038103610274576001600060026003811061025c5761025b61054d565b5b01600082825461026c91906105ab565b925050819055505b5b5b6001600360008473ffffffffffffffffffffffffffffffffffffffff1673ffffffffffffffffffffffffffffffffffffffff16815260200190815260200160002060006101000a81548160ff0219169083151502179055505050565b6040518060600160405280600390602082028036833780820191505090505090565b600060039050919050565b600081905092915050565b6000819050919050565b6000819050919050565b61032781610314565b82525050565b6000610339838361031e565b60208301905092915050565b6000602082019050919050565b61035b816102f4565b61036581846102ff565b92506103708261030a565b8060005b838110156103a1578151610388878261032d565b965061039383610345565b925050600181019050610374565b505050505050565b60006060820190506103be6000830184610352565b92915050565b600080fd5b600073ffffffffffffffffffffffffffffffffffffffff82169050919050565b60006103f4826103c9565b9050919050565b610404816103e9565b811461040f57600080fd5b50565b600081359050610421816103fb565b92915050565b60006020828403121561043d5761043c6103c4565b5b600061044b84828501610412565b91505092915050565b60008115159050919050565b61046981610454565b82525050565b60006020820190506104846000830184610460565b92915050565b61049381610314565b811461049e57600080fd5b50565b6000813590506104b08161048a565b92915050565b6000602082840312156104cc576104cb6103c4565b5b60006104da848285016104a1565b91505092915050565b6104ec81610314565b82525050565b600060208201905061050760008301846104e3565b92915050565b60008060408385031215610524576105236103c4565b5b600061053285828601610412565b9250506020610543858286016104a1565b9150509250929050565b7f4e487b7100000000000000000000000000000000000000000000000000000000600052603260045260246000fd5b7f4e487b7100000000000000000000000000000000000000000000000000000000600052601160045260246000fd5b60006105b682610314565b91506105c183610314565b92508282019050808211156105d9576105d861057c565b5b9291505056fea264697066735822122012f739607b6b770fad4f3d6fde441747bb3db7d273a40426c29504bc483094bf64736f6c63430008130033",
  "immutableReferences": {},
  "source": "// SPDX-License-Identifier: MIT\npragma solidity 0.8.19;\n\ncontract voting {\n  \n// take how many members are stand for lection..\nuint[3]  public _votes=[0,0,0];\n\n//mapping for check the voted or not..\n\nmapping(address => bool) public voter;\n\n\nfunction votecast(address wallet,uint id) public\n{\n\nrequire(!voter[wallet]);\n  if(id==1)\n  {\n    _votes[0]+=1;\n\n  }\n  else if(id==2)\n  {\n    _votes[1]+=1;\n  }\n  else if(id==3)\n  {\n    _votes[2] +=1;\n\n  }\n\n  voter[wallet]=true;\n\n\n}\n\nfunction result() public view returns(uint[3] memory)\n{\n  return (_votes);\n}\n\n\n\n}\n",
  "sourcePath": "D:\\workfiles\\Blockchain\\Smart_Voting_Systems\\contracts\\voting.sol",
  "compiler": {
    "name": "solc",
    "version": "0.8.19+commit.7dd6d404.Emscripten.clang"
  },
  "schemaVersion": "3.4.16",
  "updatedAt": "2023-12-22T07:56:11.224Z",
  "networkType": "ethereum",
  "devdoc": {
    "kind": "dev",
    "methods": {},
    "version": 1
  },
  "userdoc": {
    "kind": "user",
    "methods": {},
    "version": 1
  }
}